{
  "contractName": "UniqueAsset",
  "abi": [
    {
      "inputs": [],
      "stateMutability": "nonpayable",
      "type": "constructor"
    },
    {
      "anonymous": false,
      "inputs": [
        {
          "indexed": true,
          "internalType": "address",
          "name": "owner",
          "type": "address"
        },
        {
          "indexed": true,
          "internalType": "address",
          "name": "approved",
          "type": "address"
        },
        {
          "indexed": true,
          "internalType": "uint256",
          "name": "tokenId",
          "type": "uint256"
        }
      ],
      "name": "Approval",
      "type": "event"
    },
    {
      "anonymous": false,
      "inputs": [
        {
          "indexed": true,
          "internalType": "address",
          "name": "owner",
          "type": "address"
        },
        {
          "indexed": true,
          "internalType": "address",
          "name": "operator",
          "type": "address"
        },
        {
          "indexed": false,
          "internalType": "bool",
          "name": "approved",
          "type": "bool"
        }
      ],
      "name": "ApprovalForAll",
      "type": "event"
    },
    {
      "anonymous": false,
      "inputs": [
        {
          "indexed": true,
          "internalType": "address",
          "name": "from",
          "type": "address"
        },
        {
          "indexed": true,
          "internalType": "address",
          "name": "to",
          "type": "address"
        },
        {
          "indexed": true,
          "internalType": "uint256",
          "name": "tokenId",
          "type": "uint256"
        }
      ],
      "name": "Transfer",
      "type": "event"
    },
    {
      "inputs": [
        {
          "internalType": "address",
          "name": "to",
          "type": "address"
        },
        {
          "internalType": "uint256",
          "name": "tokenId",
          "type": "uint256"
        }
      ],
      "name": "approve",
      "outputs": [],
      "stateMutability": "nonpayable",
      "type": "function"
    },
    {
      "inputs": [
        {
          "internalType": "address",
          "name": "owner",
          "type": "address"
        }
      ],
      "name": "balanceOf",
      "outputs": [
        {
          "internalType": "uint256",
          "name": "",
          "type": "uint256"
        }
      ],
      "stateMutability": "view",
      "type": "function",
      "constant": true
    },
    {
      "inputs": [],
      "name": "baseURI",
      "outputs": [
        {
          "internalType": "string",
          "name": "",
          "type": "string"
        }
      ],
      "stateMutability": "view",
      "type": "function",
      "constant": true
    },
    {
      "inputs": [
        {
          "internalType": "uint256",
          "name": "tokenId",
          "type": "uint256"
        }
      ],
      "name": "getApproved",
      "outputs": [
        {
          "internalType": "address",
          "name": "",
          "type": "address"
        }
      ],
      "stateMutability": "view",
      "type": "function",
      "constant": true
    },
    {
      "inputs": [
        {
          "internalType": "address",
          "name": "owner",
          "type": "address"
        },
        {
          "internalType": "address",
          "name": "operator",
          "type": "address"
        }
      ],
      "name": "isApprovedForAll",
      "outputs": [
        {
          "internalType": "bool",
          "name": "",
          "type": "bool"
        }
      ],
      "stateMutability": "view",
      "type": "function",
      "constant": true
    },
    {
      "inputs": [],
      "name": "name",
      "outputs": [
        {
          "internalType": "string",
          "name": "",
          "type": "string"
        }
      ],
      "stateMutability": "view",
      "type": "function",
      "constant": true
    },
    {
      "inputs": [
        {
          "internalType": "uint256",
          "name": "tokenId",
          "type": "uint256"
        }
      ],
      "name": "ownerOf",
      "outputs": [
        {
          "internalType": "address",
          "name": "",
          "type": "address"
        }
      ],
      "stateMutability": "view",
      "type": "function",
      "constant": true
    },
    {
      "inputs": [
        {
          "internalType": "address",
          "name": "from",
          "type": "address"
        },
        {
          "internalType": "address",
          "name": "to",
          "type": "address"
        },
        {
          "internalType": "uint256",
          "name": "tokenId",
          "type": "uint256"
        }
      ],
      "name": "safeTransferFrom",
      "outputs": [],
      "stateMutability": "nonpayable",
      "type": "function"
    },
    {
      "inputs": [
        {
          "internalType": "address",
          "name": "from",
          "type": "address"
        },
        {
          "internalType": "address",
          "name": "to",
          "type": "address"
        },
        {
          "internalType": "uint256",
          "name": "tokenId",
          "type": "uint256"
        },
        {
          "internalType": "bytes",
          "name": "_data",
          "type": "bytes"
        }
      ],
      "name": "safeTransferFrom",
      "outputs": [],
      "stateMutability": "nonpayable",
      "type": "function"
    },
    {
      "inputs": [
        {
          "internalType": "address",
          "name": "operator",
          "type": "address"
        },
        {
          "internalType": "bool",
          "name": "approved",
          "type": "bool"
        }
      ],
      "name": "setApprovalForAll",
      "outputs": [],
      "stateMutability": "nonpayable",
      "type": "function"
    },
    {
      "inputs": [
        {
          "internalType": "bytes4",
          "name": "interfaceId",
          "type": "bytes4"
        }
      ],
      "name": "supportsInterface",
      "outputs": [
        {
          "internalType": "bool",
          "name": "",
          "type": "bool"
        }
      ],
      "stateMutability": "view",
      "type": "function",
      "constant": true
    },
    {
      "inputs": [],
      "name": "symbol",
      "outputs": [
        {
          "internalType": "string",
          "name": "",
          "type": "string"
        }
      ],
      "stateMutability": "view",
      "type": "function",
      "constant": true
    },
    {
      "inputs": [
        {
          "internalType": "uint256",
          "name": "index",
          "type": "uint256"
        }
      ],
      "name": "tokenByIndex",
      "outputs": [
        {
          "internalType": "uint256",
          "name": "",
          "type": "uint256"
        }
      ],
      "stateMutability": "view",
      "type": "function",
      "constant": true
    },
    {
      "inputs": [
        {
          "internalType": "address",
          "name": "owner",
          "type": "address"
        },
        {
          "internalType": "uint256",
          "name": "index",
          "type": "uint256"
        }
      ],
      "name": "tokenOfOwnerByIndex",
      "outputs": [
        {
          "internalType": "uint256",
          "name": "",
          "type": "uint256"
        }
      ],
      "stateMutability": "view",
      "type": "function",
      "constant": true
    },
    {
      "inputs": [
        {
          "internalType": "uint256",
          "name": "tokenId",
          "type": "uint256"
        }
      ],
      "name": "tokenURI",
      "outputs": [
        {
          "internalType": "string",
          "name": "",
          "type": "string"
        }
      ],
      "stateMutability": "view",
      "type": "function",
      "constant": true
    },
    {
      "inputs": [],
      "name": "totalSupply",
      "outputs": [
        {
          "internalType": "uint256",
          "name": "",
          "type": "uint256"
        }
      ],
      "stateMutability": "view",
      "type": "function",
      "constant": true
    },
    {
      "inputs": [
        {
          "internalType": "address",
          "name": "from",
          "type": "address"
        },
        {
          "internalType": "address",
          "name": "to",
          "type": "address"
        },
        {
          "internalType": "uint256",
          "name": "tokenId",
          "type": "uint256"
        }
      ],
      "name": "transferFrom",
      "outputs": [],
      "stateMutability": "nonpayable",
      "type": "function"
    },
    {
      "inputs": [
        {
          "internalType": "address",
          "name": "recipient",
          "type": "address"
        },
        {
          "internalType": "string",
          "name": "hash",
          "type": "string"
        },
        {
          "internalType": "string",
          "name": "metadata",
          "type": "string"
        }
      ],
      "name": "awardItem",
      "outputs": [
        {
          "internalType": "uint256",
          "name": "",
          "type": "uint256"
        }
      ],
      "stateMutability": "nonpayable",
      "type": "function"
    }
  ],
  "bytecode": "0x60806040523480156200001157600080fd5b506040518060400160405280600b81526020017f556e6971756541737365740000000000000000000000000000000000000000008152506040518060400160405280600381526020017f554e410000000000000000000000000000000000000000000000000000000000815250620000966301ffc9a760e01b6200011860201b60201c565b8160069080519060200190620000ae92919062000221565b508060079080519060200190620000c792919062000221565b50620000e06380ac58cd60e01b6200011860201b60201c565b620000f8635b5e139f60e01b6200011860201b60201c565b6200011063780e9d6360e01b6200011860201b60201c565b5050620002d0565b63ffffffff60e01b817bffffffffffffffffffffffffffffffffffffffffffffffffffffffff19161415620001b5576040517f08c379a000000000000000000000000000000000000000000000000000000000815260040180806020018281038252601c8152602001807f4552433136353a20696e76616c696420696e746572666163652069640000000081525060200191505060405180910390fd5b6001600080837bffffffffffffffffffffffffffffffffffffffffffffffffffffffff19167bffffffffffffffffffffffffffffffffffffffffffffffffffffffff1916815260200190815260200160002060006101000a81548160ff02191690831515021790555050565b828054600181600116156101000203166002900490600052602060002090601f016020900481019282601f106200026457805160ff191683800117855562000295565b8280016001018555821562000295579182015b828111156200029457825182559160200191906001019062000277565b5b509050620002a49190620002a8565b5090565b620002cd91905b80821115620002c9576000816000905550600101620002af565b5090565b90565b612db680620002e06000396000f3fe608060405234801561001057600080fd5b50600436106101165760003560e01c80636352211e116100a257806395d89b411161007157806395d89b411461072c578063a22cb465146107af578063b88d4fde146107ff578063c87b56dd14610904578063e985e9c5146109ab57610116565b80636352211e1461045d5780636c0360eb146104cb57806370a082311461054e5780638bfaf101146105a657610116565b806318160ddd116100e957806318160ddd146102bf57806323b872dd146102dd5780632f745c591461034b57806342842e0e146103ad5780634f6ccce71461041b57610116565b806301ffc9a71461011b57806306fdde0314610180578063081812fc14610203578063095ea7b314610271575b600080fd5b6101666004803603602081101561013157600080fd5b8101908080357bffffffffffffffffffffffffffffffffffffffffffffffffffffffff19169060200190929190505050610a27565b604051808215151515815260200191505060405180910390f35b610188610a8e565b6040518080602001828103825283818151815260200191508051906020019080838360005b838110156101c85780820151818401526020810190506101ad565b50505050905090810190601f1680156101f55780820380516001836020036101000a031916815260200191505b509250505060405180910390f35b61022f6004803603602081101561021957600080fd5b8101908080359060200190929190505050610b30565b604051808273ffffffffffffffffffffffffffffffffffffffff1673ffffffffffffffffffffffffffffffffffffffff16815260200191505060405180910390f35b6102bd6004803603604081101561028757600080fd5b81019080803573ffffffffffffffffffffffffffffffffffffffff16906020019092919080359060200190929190505050610bcb565b005b6102c7610d0f565b6040518082815260200191505060405180910390f35b610349600480360360608110156102f357600080fd5b81019080803573ffffffffffffffffffffffffffffffffffffffff169060200190929190803573ffffffffffffffffffffffffffffffffffffffff16906020019092919080359060200190929190505050610d20565b005b6103976004803603604081101561036157600080fd5b81019080803573ffffffffffffffffffffffffffffffffffffffff16906020019092919080359060200190929190505050610d96565b6040518082815260200191505060405180910390f35b610419600480360360608110156103c357600080fd5b81019080803573ffffffffffffffffffffffffffffffffffffffff169060200190929190803573ffffffffffffffffffffffffffffffffffffffff16906020019092919080359060200190929190505050610df1565b005b6104476004803603602081101561043157600080fd5b8101908080359060200190929190505050610e11565b6040518082815260200191505060405180910390f35b6104896004803603602081101561047357600080fd5b8101908080359060200190929190505050610e34565b604051808273ffffffffffffffffffffffffffffffffffffffff1673ffffffffffffffffffffffffffffffffffffffff16815260200191505060405180910390f35b6104d3610e6b565b6040518080602001828103825283818151815260200191508051906020019080838360005b838110156105135780820151818401526020810190506104f8565b50505050905090810190601f1680156105405780820380516001836020036101000a031916815260200191505b509250505060405180910390f35b6105906004803603602081101561056457600080fd5b81019080803573ffffffffffffffffffffffffffffffffffffffff169060200190929190505050610f0d565b6040518082815260200191505060405180910390f35b610716600480360360608110156105bc57600080fd5b81019080803573ffffffffffffffffffffffffffffffffffffffff169060200190929190803590602001906401000000008111156105f957600080fd5b82018360208201111561060b57600080fd5b8035906020019184600183028401116401000000008311171561062d57600080fd5b91908080601f016020809104026020016040519081016040528093929190818152602001838380828437600081840152601f19601f8201169050808301925050505050505091929192908035906020019064010000000081111561069057600080fd5b8201836020820111156106a257600080fd5b803590602001918460018302840111640100000000831117156106c457600080fd5b91908080601f016020809104026020016040519081016040528093929190818152602001838380828437600081840152601f19601f820116905080830192505050505050509192919290505050610fe2565b6040518082815260200191505060405180910390f35b610734611125565b6040518080602001828103825283818151815260200191508051906020019080838360005b83811015610774578082015181840152602081019050610759565b50505050905090810190601f1680156107a15780820380516001836020036101000a031916815260200191505b509250505060405180910390f35b6107fd600480360360408110156107c557600080fd5b81019080803573ffffffffffffffffffffffffffffffffffffffff1690602001909291908035151590602001909291905050506111c7565b005b6109026004803603608081101561081557600080fd5b81019080803573ffffffffffffffffffffffffffffffffffffffff169060200190929190803573ffffffffffffffffffffffffffffffffffffffff169060200190929190803590602001909291908035906020019064010000000081111561087c57600080fd5b82018360208201111561088e57600080fd5b803590602001918460018302840111640100000000831117156108b057600080fd5b91908080601f016020809104026020016040519081016040528093929190818152602001838380828437600081840152601f19601f82011690508083019250505050505050919291929050505061137f565b005b6109306004803603602081101561091a57600080fd5b81019080803590602001909291905050506113f7565b6040518080602001828103825283818151815260200191508051906020019080838360005b83811015610970578082015181840152602081019050610955565b50505050905090810190601f16801561099d5780820380516001836020036101000a031916815260200191505b509250505060405180910390f35b610a0d600480360360408110156109c157600080fd5b81019080803573ffffffffffffffffffffffffffffffffffffffff169060200190929190803573ffffffffffffffffffffffffffffffffffffffff1690602001909291905050506116c8565b604051808215151515815260200191505060405180910390f35b6000806000837bffffffffffffffffffffffffffffffffffffffffffffffffffffffff19167bffffffffffffffffffffffffffffffffffffffffffffffffffffffff1916815260200190815260200160002060009054906101000a900460ff169050919050565b606060068054600181600116156101000203166002900480601f016020809104026020016040519081016040528092919081815260200182805460018160011615610100020316600290048015610b265780601f10610afb57610100808354040283529160200191610b26565b820191906000526020600020905b815481529060010190602001808311610b0957829003601f168201915b5050505050905090565b6000610b3b8261175c565b610b90576040517f08c379a000000000000000000000000000000000000000000000000000000000815260040180806020018281038252602c815260200180612c7f602c913960400191505060405180910390fd5b6004600083815260200190815260200160002060009054906101000a900473ffffffffffffffffffffffffffffffffffffffff169050919050565b6000610bd682610e34565b90508073ffffffffffffffffffffffffffffffffffffffff168373ffffffffffffffffffffffffffffffffffffffff161415610c5d576040517f08c379a0000000000000000000000000000000000000000000000000000000008152600401808060200182810382526021815260200180612d2f6021913960400191505060405180910390fd5b8073ffffffffffffffffffffffffffffffffffffffff16610c7c611779565b73ffffffffffffffffffffffffffffffffffffffff161480610cab5750610caa81610ca5611779565b6116c8565b5b610d00576040517f08c379a0000000000000000000000000000000000000000000000000000000008152600401808060200182810382526038815260200180612bd26038913960400191505060405180910390fd5b610d0a8383611781565b505050565b6000610d1b600261183a565b905090565b610d31610d2b611779565b8261184f565b610d86576040517f08c379a0000000000000000000000000000000000000000000000000000000008152600401808060200182810382526031815260200180612d506031913960400191505060405180910390fd5b610d91838383611943565b505050565b6000610de982600160008673ffffffffffffffffffffffffffffffffffffffff1673ffffffffffffffffffffffffffffffffffffffff168152602001908152602001600020611b8690919063ffffffff16565b905092915050565b610e0c8383836040518060200160405280600081525061137f565b505050565b600080610e28836002611ba090919063ffffffff16565b50905080915050919050565b6000610e6482604051806060016040528060298152602001612c34602991396002611bcf9092919063ffffffff16565b9050919050565b606060098054600181600116156101000203166002900480601f016020809104026020016040519081016040528092919081815260200182805460018160011615610100020316600290048015610f035780601f10610ed857610100808354040283529160200191610f03565b820191906000526020600020905b815481529060010190602001808311610ee657829003601f168201915b5050505050905090565b60008073ffffffffffffffffffffffffffffffffffffffff168273ffffffffffffffffffffffffffffffffffffffff161415610f94576040517f08c379a000000000000000000000000000000000000000000000000000000000815260040180806020018281038252602a815260200180612c0a602a913960400191505060405180910390fd5b610fdb600160008473ffffffffffffffffffffffffffffffffffffffff1673ffffffffffffffffffffffffffffffffffffffff168152602001908152602001600020611bee565b9050919050565b60006001600b846040518082805190602001908083835b6020831061101c5780518252602082019150602081019050602083039250610ff9565b6001836020036101000a038019825116818451168082178552505050505050905001915050908152602001604051809103902060009054906101000a900460ff1660ff16141561106b57600080fd5b6001600b846040518082805190602001908083835b602083106110a35780518252602082019150602081019050602083039250611080565b6001836020036101000a038019825116818451168082178552505050505050905001915050908152602001604051809103902060006101000a81548160ff021916908360ff1602179055506110f8600a611c03565b6000611104600a611c19565b90506111108582611c27565b61111a8184611e1b565b809150509392505050565b606060078054600181600116156101000203166002900480601f0160208091040260200160405190810160405280929190818152602001828054600181600116156101000203166002900480156111bd5780601f10611192576101008083540402835291602001916111bd565b820191906000526020600020905b8154815290600101906020018083116111a057829003601f168201915b5050505050905090565b6111cf611779565b73ffffffffffffffffffffffffffffffffffffffff168273ffffffffffffffffffffffffffffffffffffffff161415611270576040517f08c379a00000000000000000000000000000000000000000000000000000000081526004018080602001828103825260198152602001807f4552433732313a20617070726f766520746f2063616c6c65720000000000000081525060200191505060405180910390fd5b806005600061127d611779565b73ffffffffffffffffffffffffffffffffffffffff1673ffffffffffffffffffffffffffffffffffffffff16815260200190815260200160002060008473ffffffffffffffffffffffffffffffffffffffff1673ffffffffffffffffffffffffffffffffffffffff16815260200190815260200160002060006101000a81548160ff0219169083151502179055508173ffffffffffffffffffffffffffffffffffffffff1661132a611779565b73ffffffffffffffffffffffffffffffffffffffff167f17307eab39ab6107e8899845ad3d59bd9653f200f220920489ca2b5937696c3183604051808215151515815260200191505060405180910390a35050565b61139061138a611779565b8361184f565b6113e5576040517f08c379a0000000000000000000000000000000000000000000000000000000008152600401808060200182810382526031815260200180612d506031913960400191505060405180910390fd5b6113f184848484611ea5565b50505050565b60606114028261175c565b611457576040517f08c379a000000000000000000000000000000000000000000000000000000000815260040180806020018281038252602f815260200180612d00602f913960400191505060405180910390fd5b6060600860008481526020019081526020016000208054600181600116156101000203166002900480601f0160208091040260200160405190810160405280929190818152602001828054600181600116156101000203166002900480156115005780601f106114d557610100808354040283529160200191611500565b820191906000526020600020905b8154815290600101906020018083116114e357829003601f168201915b505050505090506060611511610e6b565b90506000815114156115275781925050506116c3565b6000825111156115f85780826040516020018083805190602001908083835b602083106115695780518252602082019150602081019050602083039250611546565b6001836020036101000a03801982511681845116808217855250505050505090500182805190602001908083835b602083106115ba5780518252602082019150602081019050602083039250611597565b6001836020036101000a03801982511681845116808217855250505050505090500192505050604051602081830303815290604052925050506116c3565b8061160285611f17565b6040516020018083805190602001908083835b602083106116385780518252602082019150602081019050602083039250611615565b6001836020036101000a03801982511681845116808217855250505050505090500182805190602001908083835b602083106116895780518252602082019150602081019050602083039250611666565b6001836020036101000a03801982511681845116808217855250505050505090500192505050604051602081830303815290604052925050505b919050565b6000600560008473ffffffffffffffffffffffffffffffffffffffff1673ffffffffffffffffffffffffffffffffffffffff16815260200190815260200160002060008373ffffffffffffffffffffffffffffffffffffffff1673ffffffffffffffffffffffffffffffffffffffff16815260200190815260200160002060009054906101000a900460ff16905092915050565b600061177282600261204790919063ffffffff16565b9050919050565b600033905090565b816004600083815260200190815260200160002060006101000a81548173ffffffffffffffffffffffffffffffffffffffff021916908373ffffffffffffffffffffffffffffffffffffffff160217905550808273ffffffffffffffffffffffffffffffffffffffff166117f483610e34565b73ffffffffffffffffffffffffffffffffffffffff167f8c5be1e5ebec7d5bd14f71427d1e84f3dd0314c0f7b2291e5b200ac8c7c3b92560405160405180910390a45050565b600061184882600001612061565b9050919050565b600061185a8261175c565b6118af576040517f08c379a000000000000000000000000000000000000000000000000000000000815260040180806020018281038252602c815260200180612ba6602c913960400191505060405180910390fd5b60006118ba83610e34565b90508073ffffffffffffffffffffffffffffffffffffffff168473ffffffffffffffffffffffffffffffffffffffff16148061192957508373ffffffffffffffffffffffffffffffffffffffff1661191184610b30565b73ffffffffffffffffffffffffffffffffffffffff16145b8061193a575061193981856116c8565b5b91505092915050565b8273ffffffffffffffffffffffffffffffffffffffff1661196382610e34565b73ffffffffffffffffffffffffffffffffffffffff16146119cf576040517f08c379a0000000000000000000000000000000000000000000000000000000008152600401808060200182810382526029815260200180612cd76029913960400191505060405180910390fd5b600073ffffffffffffffffffffffffffffffffffffffff168273ffffffffffffffffffffffffffffffffffffffff161415611a55576040517f08c379a0000000000000000000000000000000000000000000000000000000008152600401808060200182810382526024815260200180612b5c6024913960400191505060405180910390fd5b611a60838383612072565b611a6b600082611781565b611abc81600160008673ffffffffffffffffffffffffffffffffffffffff1673ffffffffffffffffffffffffffffffffffffffff16815260200190815260200160002061207790919063ffffffff16565b50611b0e81600160008573ffffffffffffffffffffffffffffffffffffffff1673ffffffffffffffffffffffffffffffffffffffff16815260200190815260200160002061209190919063ffffffff16565b50611b25818360026120ab9092919063ffffffff16565b50808273ffffffffffffffffffffffffffffffffffffffff168473ffffffffffffffffffffffffffffffffffffffff167fddf252ad1be2c89b69c2b068fc378daa952ba7f163c4a11628f55a4df523b3ef60405160405180910390a4505050565b6000611b9583600001836120e0565b60001c905092915050565b600080600080611bb38660000186612163565b915091508160001c8160001c8090509350935050509250929050565b6000611be2846000018460001b846121fc565b60001c90509392505050565b6000611bfc826000016122f2565b9050919050565b6001816000016000828254019250508190555050565b600081600001549050919050565b600073ffffffffffffffffffffffffffffffffffffffff168273ffffffffffffffffffffffffffffffffffffffff161415611cca576040517f08c379a00000000000000000000000000000000000000000000000000000000081526004018080602001828103825260208152602001807f4552433732313a206d696e7420746f20746865207a65726f206164647265737381525060200191505060405180910390fd5b611cd38161175c565b15611d46576040517f08c379a000000000000000000000000000000000000000000000000000000000815260040180806020018281038252601c8152602001807f4552433732313a20746f6b656e20616c7265616479206d696e7465640000000081525060200191505060405180910390fd5b611d5260008383612072565b611da381600160008573ffffffffffffffffffffffffffffffffffffffff1673ffffffffffffffffffffffffffffffffffffffff16815260200190815260200160002061209190919063ffffffff16565b50611dba818360026120ab9092919063ffffffff16565b50808273ffffffffffffffffffffffffffffffffffffffff16600073ffffffffffffffffffffffffffffffffffffffff167fddf252ad1be2c89b69c2b068fc378daa952ba7f163c4a11628f55a4df523b3ef60405160405180910390a45050565b611e248261175c565b611e79576040517f08c379a000000000000000000000000000000000000000000000000000000000815260040180806020018281038252602c815260200180612cab602c913960400191505060405180910390fd5b80600860008481526020019081526020016000209080519060200190611ea0929190612a62565b505050565b611eb0848484611943565b611ebc84848484612303565b611f11576040517f08c379a0000000000000000000000000000000000000000000000000000000008152600401808060200182810382526032815260200180612b2a6032913960400191505060405180910390fd5b50505050565b60606000821415611f5f576040518060400160405280600181526020017f30000000000000000000000000000000000000000000000000000000000000008152509050612042565b600082905060005b60008214611f89578080600101915050600a8281611f8157fe5b049150611f67565b6060816040519080825280601f01601f191660200182016040528015611fbe5781602001600182028038833980820191505090505b50905060006001830390508593505b6000841461203a57600a8481611fdf57fe5b0660300160f81b82828060019003935081518110611ff957fe5b60200101907effffffffffffffffffffffffffffffffffffffffffffffffffffffffffffff1916908160001a905350600a848161203257fe5b049350611fcd565b819450505050505b919050565b6000612059836000018360001b612548565b905092915050565b600081600001805490509050919050565b505050565b6000612089836000018360001b61256b565b905092915050565b60006120a3836000018360001b612653565b905092915050565b60006120d7846000018460001b8473ffffffffffffffffffffffffffffffffffffffff1660001b6126c3565b90509392505050565b600081836000018054905011612141576040517f08c379a0000000000000000000000000000000000000000000000000000000008152600401808060200182810382526022815260200180612b086022913960400191505060405180910390fd5b82600001828154811061215057fe5b9060005260206000200154905092915050565b600080828460000180549050116121c5576040517f08c379a0000000000000000000000000000000000000000000000000000000008152600401808060200182810382526022815260200180612c5d6022913960400191505060405180910390fd5b60008460000184815481106121d657fe5b906000526020600020906002020190508060000154816001015492509250509250929050565b600080846001016000858152602001908152602001600020549050600081141583906122c3576040517f08c379a00000000000000000000000000000000000000000000000000000000081526004018080602001828103825283818151815260200191508051906020019080838360005b8381101561228857808201518184015260208101905061226d565b50505050905090810190601f1680156122b55780820380516001836020036101000a031916815260200191505b509250505060405180910390fd5b508460000160018203815481106122d657fe5b9060005260206000209060020201600101549150509392505050565b600081600001805490509050919050565b60006123248473ffffffffffffffffffffffffffffffffffffffff1661279f565b6123315760019050612540565b60606124c763150b7a0260e01b612346611779565b888787604051602401808573ffffffffffffffffffffffffffffffffffffffff1673ffffffffffffffffffffffffffffffffffffffff1681526020018473ffffffffffffffffffffffffffffffffffffffff1673ffffffffffffffffffffffffffffffffffffffff16815260200183815260200180602001828103825283818151815260200191508051906020019080838360005b838110156123f65780820151818401526020810190506123db565b50505050905090810190601f1680156124235780820380516001836020036101000a031916815260200191505b5095505050505050604051602081830303815290604052907bffffffffffffffffffffffffffffffffffffffffffffffffffffffff19166020820180517bffffffffffffffffffffffffffffffffffffffffffffffffffffffff8381831617835250505050604051806060016040528060328152602001612b2a603291398773ffffffffffffffffffffffffffffffffffffffff166127b29092919063ffffffff16565b905060008180602001905160208110156124e057600080fd5b8101908080519060200190929190505050905063150b7a0260e01b7bffffffffffffffffffffffffffffffffffffffffffffffffffffffff1916817bffffffffffffffffffffffffffffffffffffffffffffffffffffffff191614925050505b949350505050565b600080836001016000848152602001908152602001600020541415905092915050565b6000808360010160008481526020019081526020016000205490506000811461264757600060018203905060006001866000018054905003905060008660000182815481106125b657fe5b90600052602060002001549050808760000184815481106125d357fe5b906000526020600020018190555060018301876001016000838152602001908152602001600020819055508660000180548061260b57fe5b6001900381819060005260206000200160009055905586600101600087815260200190815260200160002060009055600194505050505061264d565b60009150505b92915050565b600061265f83836127ca565b6126b85782600001829080600181540180825580915050600190039060005260206000200160009091909190915055826000018054905083600101600084815260200190815260200160002081905550600190506126bd565b600090505b92915050565b600080846001016000858152602001908152602001600020549050600081141561276a57846000016040518060400160405280868152602001858152509080600181540180825580915050600190039060005260206000209060020201600090919091909150600082015181600001556020820151816001015550508460000180549050856001016000868152602001908152602001600020819055506001915050612798565b8285600001600183038154811061277d57fe5b90600052602060002090600202016001018190555060009150505b9392505050565b600080823b905060008111915050919050565b60606127c184846000856127ed565b90509392505050565b600080836001016000848152602001908152602001600020541415905092915050565b606082471015612848576040517f08c379a0000000000000000000000000000000000000000000000000000000008152600401808060200182810382526026815260200180612b806026913960400191505060405180910390fd5b6128518561279f565b6128c3576040517f08c379a000000000000000000000000000000000000000000000000000000000815260040180806020018281038252601d8152602001807f416464726573733a2063616c6c20746f206e6f6e2d636f6e747261637400000081525060200191505060405180910390fd5b600060608673ffffffffffffffffffffffffffffffffffffffff1685876040518082805190602001908083835b6020831061291357805182526020820191506020810190506020830392506128f0565b6001836020036101000a03801982511681845116808217855250505050505090500191505060006040518083038185875af1925050503d8060008114612975576040519150601f19603f3d011682016040523d82523d6000602084013e61297a565b606091505b509150915061298a828286612996565b92505050949350505050565b606083156129a657829050612a5b565b6000835111156129b95782518084602001fd5b816040517f08c379a00000000000000000000000000000000000000000000000000000000081526004018080602001828103825283818151815260200191508051906020019080838360005b83811015612a20578082015181840152602081019050612a05565b50505050905090810190601f168015612a4d5780820380516001836020036101000a031916815260200191505b509250505060405180910390fd5b9392505050565b828054600181600116156101000203166002900490600052602060002090601f016020900481019282601f10612aa357805160ff1916838001178555612ad1565b82800160010185558215612ad1579182015b82811115612ad0578251825591602001919060010190612ab5565b5b509050612ade9190612ae2565b5090565b612b0491905b80821115612b00576000816000905550600101612ae8565b5090565b9056fe456e756d657261626c655365743a20696e646578206f7574206f6620626f756e64734552433732313a207472616e7366657220746f206e6f6e20455243373231526563656976657220696d706c656d656e7465724552433732313a207472616e7366657220746f20746865207a65726f2061646472657373416464726573733a20696e73756666696369656e742062616c616e636520666f722063616c6c4552433732313a206f70657261746f7220717565727920666f72206e6f6e6578697374656e7420746f6b656e4552433732313a20617070726f76652063616c6c6572206973206e6f74206f776e6572206e6f7220617070726f76656420666f7220616c6c4552433732313a2062616c616e636520717565727920666f7220746865207a65726f20616464726573734552433732313a206f776e657220717565727920666f72206e6f6e6578697374656e7420746f6b656e456e756d657261626c654d61703a20696e646578206f7574206f6620626f756e64734552433732313a20617070726f76656420717565727920666f72206e6f6e6578697374656e7420746f6b656e4552433732314d657461646174613a2055524920736574206f66206e6f6e6578697374656e7420746f6b656e4552433732313a207472616e73666572206f6620746f6b656e2074686174206973206e6f74206f776e4552433732314d657461646174613a2055524920717565727920666f72206e6f6e6578697374656e7420746f6b656e4552433732313a20617070726f76616c20746f2063757272656e74206f776e65724552433732313a207472616e736665722063616c6c6572206973206e6f74206f776e6572206e6f7220617070726f766564a26469706673582212204c5eb2516a0bfbd121167b323e944811e5fab84e0e5a77f5c7b84380dd4a4d8564736f6c63430006020033",
  "source": "pragma solidity ^0.6.2;\nimport \"@openzeppelin/contracts/token/ERC721/ERC721.sol\";\nimport \"@openzeppelin/contracts/utils/Counters.sol\";\n\ncontract UniqueAsset is ERC721{\n\n  using Counters for Counters.Counter;\n  Counters.Counter private _tokenIds;\n  mapping(string => uint8) hashes;\n  constructor() public ERC721(\"UniqueAsset\", \"UNA\") {}\n\n  function awardItem(address recipient, string memory hash, string memory metadata) \n    public\n    returns (uint256)\n    {\n      require(hashes[hash] != 1);\n\n      hashes[hash] = 1;\n\n      _tokenIds.increment();\n\n      uint256 newItemId = _tokenIds.current();\n\n      _mint(recipient, newItemId);\n\n      _setTokenURI(newItemId, metadata);\n\n      return newItemId;\n    }\n\n}\n\n\n\n\n",
  "sourcePath": "/home/garry/Desktop/mySpecialAsset/contracts/UniqueAsset.sol",
  "compiler": {
    "name": "solc",
    "version": "0.6.2+commit.bacdbe57.Emscripten.clang"
  },
  "schemaVersion": "3.3.4",
  "updatedAt": "2021-05-10T09:06:24.061Z",
  "networkType": "ethereum",
  "devdoc": {
    "methods": {
      "approve(address,uint256)": {
        "details": "See {IERC721-approve}."
      },
      "balanceOf(address)": {
        "details": "See {IERC721-balanceOf}."
      },
      "baseURI()": {
        "details": "Returns the base URI set via {_setBaseURI}. This will be automatically added as a prefix in {tokenURI} to each token's URI, or to the token ID if no specific URI is set for that token ID."
      },
      "getApproved(uint256)": {
        "details": "See {IERC721-getApproved}."
      },
      "isApprovedForAll(address,address)": {
        "details": "See {IERC721-isApprovedForAll}."
      },
      "name()": {
        "details": "See {IERC721Metadata-name}."
      },
      "ownerOf(uint256)": {
        "details": "See {IERC721-ownerOf}."
      },
      "safeTransferFrom(address,address,uint256)": {
        "details": "See {IERC721-safeTransferFrom}."
      },
      "safeTransferFrom(address,address,uint256,bytes)": {
        "details": "See {IERC721-safeTransferFrom}."
      },
      "setApprovalForAll(address,bool)": {
        "details": "See {IERC721-setApprovalForAll}."
      },
      "supportsInterface(bytes4)": {
        "details": "See {IERC165-supportsInterface}.     * Time complexity O(1), guaranteed to always use less than 30 000 gas."
      },
      "symbol()": {
        "details": "See {IERC721Metadata-symbol}."
      },
      "tokenByIndex(uint256)": {
        "details": "See {IERC721Enumerable-tokenByIndex}."
      },
      "tokenOfOwnerByIndex(address,uint256)": {
        "details": "See {IERC721Enumerable-tokenOfOwnerByIndex}."
      },
      "tokenURI(uint256)": {
        "details": "See {IERC721Metadata-tokenURI}."
      },
      "totalSupply()": {
        "details": "See {IERC721Enumerable-totalSupply}."
      },
      "transferFrom(address,address,uint256)": {
        "details": "See {IERC721-transferFrom}."
      }
    }
  },
  "userdoc": {
    "methods": {}
  }
}